:020000040800F2
:1000000068040020D5000008F112000889100008DB
:1000100000000000000000000000000000000000E0
:100020000000000000000000000000003B1300087A
:100030000000000000000000391300083D13000814
:10004000E7000008E7000008E7000008E7000008F4
:10005000E7000008E7000008E7000008E7000008E4
:10006000E7000008E7000008E7000008E7000008D4
:10007000E7000008E700000800000000E7000008B3
:1000800000000000E7000008000000000000000081
:10009000E700000800000000E7000008E700000893
:1000A000E7000008E7000008E7000008E700000894
:1000B000E7000008E7000008E7000008E700000884
:1000C0000348854600F0B0F8004800477D1400085A
:1000D000680400200448804704480047FEE7FEE724
:1000E000FEE7FEE7FEE7FEE7BD130008C1000008DB
:1000F00030B50B46014600202022012409E00D46C0
:10010000D5409D4205D31D469540491B2546954047
:1001100040191546521E002DF1DC30BDD2B201E06F
:100120000270401C491EFBD270470022F6E710B552
:1001300013460A4604461946FFF7F0FF204610BD55
:1001400000B5030001F064F9070507090F0F0D0B57
:100150000F0006A000BD0BA000BD14A000BD1EA096
:1001600000BD23A000BD2CA000BD00004E6F206587
:1001700072726F7220286572726E6F203D20302976
:100180000000000045444F4D202D2066756E6374BD
:10019000696F6E20617267756D656E74206F75741E
:1001A000206F662072616E67650000004552414E07
:1001B0004745202D2066756E6374696F6E207265E9
:1001C00073756C74206E6F742072657072657365E0
:1001D0006E7461626C650000454E4F4D454D202D9B
:1001E000206F7574206F66206D656D6F72790000E9
:1001F00045494E56414C202D20696E76616C6964EC
:1002000020617267756D656E7420746F2066756EFF
:100210006374696F6E000000556E6B6E6F776E20B1
:100220006572726F72000000064C0125064E05E0F3
:10023000E36807CC2B430C3C98471034B442F7D307
:10024000FFF742FF341600085416000870B5044644
:1002500000F0CAF80546601C02D004480078241853
:1002600000F0C2F8401BA042FAD370BD000000208D
:10027000FCB500230124A2E027462A469F403A40CD
:100280006FD04D68012D05D0022D03D0112D01D066
:10029000122D16D185680326AC465D00AE46AE40F1
:1002A0006546B543AC46CE687546AE4065462E43BE
:1002B000866046680D79BE43ED06ED0F9D403543DF
:1002C0004560C6685F000325BD40AE46AE43354677
:1002D0008E68BE402E43C6604E68022E01D0122E9C
:1002E00014D1DE08B60036180196366A5D07B446AA
:1002F000EE0E0F25B54000966646AE43B4460D6936
:10030000009EB54066462E43019D2E6206687546E6
:10031000AE430D79AD07AD0FBD40354305604D6867
:10032000ED004BD5294D6E6B26436E639E08284D1C
:10033000B6007519AC46AD689E07360F0F27B7405B
:10034000BD4305273F07B84201D1002715E0214FE3
:10035000B84201D1012710E01F4FB84202D1022755
:100360000BE02BE01D4FB84201D1032705E01C4FE5
:10037000B84201D1052700E00627B7402F43654664
:10038000AF60184D2E684F689643FF0300D51643A3
:100390002E606E684F689643BF0300D516436E60AB
:1003A000AE684F689643FF0200D51643AE60EE6814
:1003B0004F689643BF0200D51643EE605B1C0A6887
:1003C0001546DA4000D057E7FCBD0000001002409F
:1003D000000001400004005000080050000C0050D4
:1003E000001C005000040140014880687047000074
:1003F0000000002070B5024640325378202B1CD1FB
:100400001378012B19D0012313702424547004682D
:1004100025689D432560046825681E03B543256053
:10042000046825680D432560006801681943016070
:10043000202050700020107070BD022070BD70B57B
:10044000024640325378202B1BD11378012B18D051
:10045000012414702423537003681D68A5431D6094
:1004600005682B680F263602B34309021943296039
:100470000068016821430160202050700020107046
:1004800070BD022070BD000070B5040006D0254686
:10049000403568780026002802D005E0012070BDB4
:1004A0002E70204600F05AF92420687020680168F8
:1004B0004908490001600F216068090688432168E6
:1004C000086121688A680120C00382438A60E1686C
:1004D0000129A16808D0212292021143226891606B
:1004E000E168022902D005E00143F7E70121226813
:1004F000C902516021684A680F4B1A434A6021685B
:10050000CA688243CA60616920690843A169090217
:1005100008432168C860216AE069084321680860CF
:100520002068016801221143016066642020687020
:100530002663AE70002070BD00800002FFB5054646
:1005400004464035687881B0202878D12878012881
:1005500075D001202870FFF747FF07460122009061
:100560001923D103204600F0EDFD00283CD12220C4
:1005700068701020A8700026666403986062049872
:1005800060856663618D2F48FF2903D9FF2222858C
:1005900000903BE0618D218500903DE0204602996E
:1005A00000F0BCFD16E000F0F5FD00281CD120682D
:1005B000406A616A0870606A401C6062208D401E5B
:1005C00081B22185608D401E6085608D002801D03C
:1005D00000290CD0608D0A9900283A462046E2D1C5
:1005E00000F018FE00281CD0012005B0F0BD0097D7
:1005F0000022802120460A9B00F0A4FD0028F3D1B0
:10060000608DFF2805D9FF222285009601231B0655
:10061000C4E7608D20850096208D0123C2B25B0661
:10062000BCE721682020C86121684A68064B1A404F
:100630004A606870AE702E700020D6E7FFE7022097
:10064000D3E700000024008000E800FEFFB5054667
:1006500004464035687881B0202878D12878012870
:1006600075D001202870FFF7BFFE074601220090D9
:100670001923D103204600F065FD00283CD121203C
:1006800068701020A8700026666403986062049861
:1006900060856663618D2F48FF2903D9FF2222857B
:1006A00000903BE0618D218500903DE0204602995D
:1006B00000F034FD16E000F0D3FD00281CD1606A84
:1006C000216800788862606A401C6062608D401E0C
:1006D0006085208D401E80B22085618D002901D06B
:1006E00000280CD0608D0A9900283A462046E2D1B5
:1006F00000F090FD00281CD0012005B0F0BD00974F
:100700000022802120460A9B00F01CFD0028F3D126
:10071000608DFF2805D9FF222285009601231B0644
:10072000C4E7608D20850096208D0123C2B25B0650
:10073000BCE721682020C86121684A68064B1A403E
:100740004A606870AE702E700020D6E7FFE7022086
:10075000D3E700000020008000E800FE10B586B05E
:10076000044614216846FFF7E0FC104920688842DF
:1007700019D10F4CE16A02200143E162E16A0140B4
:100780000591C020009012200121019003200291C8
:100790000491039069460748FFF76AFDA06B0121A9
:1007A00049050843A06306B010BD00000054004096
:1007B0000010024000040050024881680278891845
:1007C000816070470000002010B5084800240168CF
:1007D000402211430160204600F00AF8002801D0B1
:1007E000012401E000F026F8204610BD0020024060
:1007F00070B504460D4D7D202978C000FFF778FCC8
:1008000001460B480068FFF773FC00F025FC002848
:1008100009D1042C07D200222146401E00F016F810
:1008200000206C6070BD012070BD00000000002041
:100830000C0000200448416B012211434163816B8D
:1008400002041143816370470010024010B500F0AC
:1008500051FD10BDF8B504460068614D810601D414
:1008600000057DD55E4E0027403EB06BC00004D42D
:10087000B06B31040843B06301275A480168C905C9
:1008800011D40168821511430160FFF7ADFD00909E
:1008900005E0FFF7A9FD0099401A642844D85148A3
:1008A0000068C005F5D53168032000056268014085
:1008B0001040884205D10323A0681B0518408842D8
:1008C00008D09003800F032804D13068800301D53D
:1008D0000120F8BD286903210904084029D00A40F5
:1008E000824202D02278920606D4A2680A4082424E
:1008F0001FD0208800051CD528692A69884301215A
:10090000C9040A432A612A698A432A612861C00509
:100910000FD5FFF769FD009008E0FFF765FD00992E
:10092000411A3148814201D90320F8BD2869800568
:10093000F3D561688803800F032805D1326800056C
:10094000824301400A43326028690322616812042D
:10095000114008432861002F06D0B16B012000E050
:1009600002E000078143B1632078C00705D0E86842
:10097000E168800880000843E8602078800705D59A
:10098000E8680C21884321690843E8602078400723
:1009900006D5E86803218902884361690843E86055
:1009A0002078000706D5E868032109038843A16978
:1009B0000843E8602078400606D5E86801218906EA
:1009C0008843216A0843E8602078000606D5E86875
:1009D000032189048843E1690843E8600020F8BDE9
:1009E000401002400070004088130000F8B50E4629
:1009F00005007DD053480068C007C00FB0420AD23E
:100A00005048016849084900314301600068C00747
:100A1000C00FB04271D128784B4C800705D5E068F3
:100A2000F0218843A9680843E0602878C00752D0C5
:100A30006868022817D0032818D02168012818D028
:100A40008905002959DAE168890889000143E160D4
:100A5000FFF7CAFC69680746022912D003291CD097
:100A6000012926D033E021688903EAE7216889015A
:100A7000E7E74907E5E7FFF7B7FCC11B33488142C9
:100A800023D8E0680007800F0228F4D123E0FFF7A5
:100A9000ABFCC11B2D48814217D8E0680007800FCE
:100AA0000328F4D117E0FFF79FFCC11B27488142C0
:100AB0000BD8E0680007800F0128F4D10BE0FFF7A6
:100AC00093FCC11B2148814201D90320F8BDE06895
:100AD0000007800FF3D11B480168C907C90FB14255
:100AE0000DD901684908490031430160006800E000
:100AF00003E0C007C00FB04201D00120F8BD287844
:100B0000400706D5E068072109028843E9680843E1
:100B1000E0602878000707D5E0680721C90288430C
:100B20002969C9000843E06000F016F8E168084A46
:100B30000906090F515CC840064908600020FFF70C
:100B400057FEF8BD0020024000100240881300004C
:100B5000181600080C00002010B5184AD1680C20A7
:100B6000084004280BD0082810D00C2810D050685A
:100B70000004410F0120C003491C884010BD1068CB
:100B8000C00601D50E4810BD0E4810BD0E4810BD60
:100B900088020E4B000F185C0902D368890F491CAC
:100BA000DB0301D5084A05E01268D20601D5044AE4
:100BB00000E0044A5043FFF79BFA10BD00100240CA
:100BC00000093D000024F40000127A0028160008F5
:100BD000FEB505007ED0FE4CE7680C20E6680740B5
:100BE0000120000406402878C00747D0082F05D010
:100BF0000C2F0AD101200004864206D12068800310
:100C00003CD568680028E5D038E001206968000418
:100C1000814203D121680143216011E005230122B3
:100C20001B0492049942216802D111432160F1E72B
:100C30008143216021680140009120689043206039
:100C4000686800280DD0FFF7CFFB009005E0FFF7A4
:100C5000CBFB0099401A64287AD820688003F6D527
:100C60000CE0FFF7C1FB009005E0FFF7BDFB00992A
:100C7000401A6428F0D820688003F6D428788007CA
:100C800055D50923E868042F0DD00C2F01D1002E73
:100C900009D000283BD02168994301432160FFF728
:100CA000A3FB064627E02168490701D5002891D01B
:100CB00061681F22120291432A6912021143616086
:100CC0002168994301432160FFF746FFE168090667
:100CD0000A0F00E0BBE1BF49895CC840BE4908601B
:100CE0000020FFF785FD002872D120E0FFF77CFB94
:100CF000801B0228B0D820684007F7D560681F2104
:100D00000902884329690902084360600FE02068EE
:100D1000400840002060FFF767FB064604E0FFF74D
:100D200063FB801B022897D820684007F7D42878F7
:100D3000C0065FD5002F0CD0E869002849D0206894
:100D4000FF21013108432060FFF74EFB06462DE0EE
:100D5000E4E02068800502D5E8690028A7D0606833
:100D6000072149038843696A084360606068298CE9
:100D70000002000A090608436060686A410B01200E
:100D8000C003491C8840E16809060A0F9149895C43
:100D9000C840914908600020FFF72AFD002817D1BC
:100DA00028E0FFF721FB801B0228A3D820688005DC
:100DB000F7D56068072149038843696A0843606082
:100DC0006068298C0002000A09060843606011E08F
:100DD00023E12168FF20013081432160FFF704FBFC
:100DE000064604E0FFF700FB801B02289BD8206822
:100DF0008005F7D42878794E000724D56869002843
:100E0000306910D0012108433061FFF7EDFA0090FE
:100E100005E0FFF7E9FA0099401A02287ED8306908
:100E20008007F6D50FE0400840003061FFF7DCFA9C
:100E3000009005E0FFF7D8FA0099401A02286DD813
:100E400030698007F6D42878400764D500200290E6
:100E5000A06BC00006D4A06B012109070843A06362
:100E6000012002905E480168C90511D4016882150D
:100E700011430160FFF7B8FA009005E0FFF7B4FAFC
:100E80000099401A642849D855480068C005F5D52E
:100E9000FF20AA680130824203D1316901433161E8
:100EA00011E001218902002A07D005231B029A4282
:100EB00003D132690A433261EFE73269824332611A
:100EC000306988433061A86800280ED0FFF78CFA9B
:100ED000009006E0FFF788FA0099411A41488142E4
:100EE0001CD830698005F5D50DE0FFF77DFA00903C
:100EF00006E0FFF779FA0099411A3A4881420DD885
:100F000030698005F5D40298002804D0A16B012037
:100F100000078143A1632878800600E07CE02ED59D
:100F20003148A9694314002916D0A26801210A4357
:100F3000A260626B0A436263016A19430162FFF7B0
:100F400053FA064604E0FFF74FFA801B022863D8E5
:100F5000A0688007F7D512E0A16849084900A160A0
:100F6000016A99430162FFF73FFA064604E0FFF782
:100F70003BFA801B02284FD8A0688007F7D4A86AE4
:100F8000002866D00C2F4DD0012636060228206896
:100F900005D0B0432060FFF727FA05463EE0B04396
:100FA0002060FFF721FA074604E0FFF71DFAC01B97
:100FB000022831D820688001F7D4296BE86AE268FA
:100FC0000843696BFD231B049A43114308430DE05A
:100FD00000100240181600080C00002040100240CB
:100FE000007000408813000000000140E0602068AD
:100FF00030432060FFF7F8F9054604E0FFF7F4F905
:10100000401B022808D820688001F7D521E0FFF7AF
:10101000EBF9401B022801D90320FEBD20688001A6
:10102000F5D416E00128F8D0E06801210904EA6A45
:10103000014091420BD10F2189042A6B014091425A
:1010400005D1032189050840696B884201D0012040
:10105000FEBD0020FEBD0000094910B5401E8842BB
:1010600001D9012010BD074C60610321081F00F069
:1010700041F90020A06107202061002010BD000080
:10108000FFFFFF0000E000E0FEE701688A69D2434D
:10109000920701D400228A6200688169C943C907A6
:1010A00003D081690122114381617047F7B504467D
:1010B00000680E468069C043C0062BD42027254611
:1010C000403520688069C043800612D5701CF8D076
:1010D000FFF78AF90299401AB04201D8002EF0D1E8
:1010E000606C384360646F700020A8702870012025
:1010F000FEBD21681020C8612068C7612046FFF747
:10110000C4FF20684168044A11404160606C0421BA
:101110000843E7E70020FEBD00E800FEF0B50668E2
:10112000059C7568064F600D384385438805800D22
:10113000110408431843204305437560F0BD0000C7
:10114000FF63FF03F8B51D4617460E46044609E047
:10115000681C07D0FFF748F90699401AA8420BD837
:10116000002D09D020688169304688430FD00020C7
:10117000B842EDD00020F8BD616C202001436164CD
:10118000403460700020A07020700120F8BD012064
:10119000EEE70000F7B50027202605460446403557
:1011A00028E02046029A0199FFF780FF002801D02D
:1011B0000120FEBD20688069C043800611D42068EC
:1011C0008169C943490702D4218D002917D1C6611D
:1011D000206841680E4A1140416067646E70AF70CC
:1011E00013E0FFF701F90299411A0198814208D8EA
:1011F000002806D020688069C0434007D1D4002071
:10120000FEBD606C304360646E702F70D0E70000EC
:1012100000E800FE70B516460D4604460FE0324663
:1012200029462046FFF742FF002801D0012070BD6B
:10123000FFF7DAF8801BA84208D8002D06D02068F6
:101240008069C0438006EAD4002070BD616C202014
:1012500001436164403460700020A0702070E5E7B5
:1012600070B516460D46044611E032462946204622
:10127000FFF71CFF002801D0012070BD681C06D0BC
:10128000FFF7B2F8801BA84208D8002D06D02068CE
:101290008069C0438007E8D4002070BD616C2020C5
:1012A00001436164403460700020A0702070E3E767
:1012B00010B50D480B4901600C4941600021816067
:1012C0000161416181610122C161C2600162FFF778
:1012D000DBF800210448FFF78DF800210248FFF7F2
:1012E000AEF810BD0054004018000020BB7C700018
:1012F000704700008307FF22DB0E9A408907090E22
:10130000994000280BDA0007000F083883080848C6
:101310009B001818C36993430B43C361704783084C
:1013200004489B001B1818689043084318607047D6
:1013300000ED00E000E400E07047704710B5FFF7F3
:101340003BFA10BD10B59CB038216846FEF7EDFEA3
:10135000142117A8FEF7E9FE24210EA8FEF7E5FEEA
:10136000154801680322D2029143C2148918016012
:101370000220009001210A90039140040C9000018A
:10138000102100240D900B9404916846FFF720FC77
:101390000F2017900320189019941A9401211B9480
:1013A00017A8FFF723FB08200E9014940EA8FFF750
:1013B00051FA1CB010BD00000070004010480168D8
:1013C000821511430160C1680E4A1140C160016875
:1013D0000D4A114001608168490849008160016837
:1013E0000122920491430160C168FD2212049143DD
:1013F000C160002101610549C00388607047000099
:10140000001002400C40FF88F6FFF6FE00ED00E001
:1014100030B47446641E2578641CAB4200D21D466D
:10142000635D5B00E31830BC18470000004870475C
:101430001400002002E008C8121F08C1002AFAD1D7
:1014400070477047002001E001C1121F002AFBD144
:10145000704738B504466846047069460320ABBE41
:10146000204638BD70B50D46044602E02946FFF718
:10147000F0FF2078641C0028F8D170BD00B585B05D
:10148000FFF7A2F9FFF75EFF0B48C26A02210A4389
:10149000C262C06A08400490FFF70AFF00F00EF82D
:1014A000684600F047F802A800F058F80A20FEF756
:1014B000CDFE002005B000BD0010024010B5002197
:1014C0006B2000F069F8FF24F5342046FEF7BEFEDD
:1014D00000211C2000F060F82046FEF7B7FE002136
:1014E0001B2000F059F82046FEF7B0FE10BD0000AA
:1014F00038B593B200240A46E443014606480094F6
:10150000FFF71CF8002804DC04A000F065F8204672
:1015100038BD002038BD00001800002077726974C3
:10152000652061646472657373206661696C6564CB
:101530000A0000001CB50446062269463B20FFF75E
:10154000D7FF6846008840BA20806846408840BA85
:1015500060806846808840BAA0801CBD1CB50446E7
:10156000062269464320FFF7C3FF68460078010260
:1015700068464078081820806846807801026846EE
:10158000C078081860806846007901026846407992
:101590000818A0801CBD000013B582B00024E443ED
:1015A0000146012303AA07480094FFF74FF80028DB
:1015B00005DC05A000F010F8204604B010BD0020A6
:1015C000FBE70000180000207772697465206661EF
:1015D000696C65640A00000010B5002809D0017824
:1015E000002906D00949FFF73DFF084908A0FFF789
:1015F00039FFFFF71BFF0068FEF7A2FD0349FFF765
:1016000031FF024903A0FFF72DFF10BD100000209D
:101610003A2000000A000000000000000000000066
:101620000102030406070809030406080C10182029
:1016300030000000541600080000002018000000D0
:10164000341400086C160008180000205004000034
:101650004414000801000000040000000000000025
:0C1660000000200000000000000000005E
:04000005080000C12E
:00000001FF
